{
  "_format": "hh-sol-artifact-1",
  "contractName": "Ballot",
  "sourceName": "contracts/Ballot.sol",
  "abi": [
    {
      "inputs": [
        {
          "internalType": "bytes32[]",
          "name": "proposalNames",
          "type": "bytes32[]"
        }
      ],
      "stateMutability": "nonpayable",
      "type": "constructor"
    },
    {
      "inputs": [],
      "name": "chairperson",
      "outputs": [
        {
          "internalType": "address",
          "name": "",
          "type": "address"
        }
      ],
      "stateMutability": "view",
      "type": "function"
    },
    {
      "inputs": [
        {
          "internalType": "address",
          "name": "to",
          "type": "address"
        }
      ],
      "name": "delegate",
      "outputs": [],
      "stateMutability": "nonpayable",
      "type": "function"
    },
    {
      "inputs": [
        {
          "internalType": "address",
          "name": "voter",
          "type": "address"
        }
      ],
      "name": "giveRightToVote",
      "outputs": [],
      "stateMutability": "nonpayable",
      "type": "function"
    },
    {
      "inputs": [
        {
          "internalType": "uint256",
          "name": "",
          "type": "uint256"
        }
      ],
      "name": "proposals",
      "outputs": [
        {
          "internalType": "bytes32",
          "name": "name",
          "type": "bytes32"
        },
        {
          "internalType": "uint256",
          "name": "voteCount",
          "type": "uint256"
        }
      ],
      "stateMutability": "view",
      "type": "function"
    },
    {
      "inputs": [],
      "name": "startTime",
      "outputs": [
        {
          "internalType": "uint256",
          "name": "",
          "type": "uint256"
        }
      ],
      "stateMutability": "view",
      "type": "function"
    },
    {
      "inputs": [
        {
          "internalType": "uint256",
          "name": "proposal",
          "type": "uint256"
        }
      ],
      "name": "vote",
      "outputs": [],
      "stateMutability": "nonpayable",
      "type": "function"
    },
    {
      "inputs": [
        {
          "internalType": "address",
          "name": "",
          "type": "address"
        }
      ],
      "name": "voters",
      "outputs": [
        {
          "internalType": "uint256",
          "name": "weight",
          "type": "uint256"
        },
        {
          "internalType": "bool",
          "name": "voted",
          "type": "bool"
        },
        {
          "internalType": "address",
          "name": "delegate",
          "type": "address"
        },
        {
          "internalType": "uint256",
          "name": "vote",
          "type": "uint256"
        }
      ],
      "stateMutability": "view",
      "type": "function"
    },
    {
      "inputs": [],
      "name": "winnerName",
      "outputs": [
        {
          "internalType": "bytes32",
          "name": "winnerName_",
          "type": "bytes32"
        }
      ],
      "stateMutability": "view",
      "type": "function"
    },
    {
      "inputs": [],
      "name": "winningProposal",
      "outputs": [
        {
          "internalType": "uint256",
          "name": "winningProposal_",
          "type": "uint256"
        }
      ],
      "stateMutability": "view",
      "type": "function"
    }
  ],
  "bytecode": "0x60806040523480156200001157600080fd5b506040516200155638038062001556833981810160405281019062000037919062000343565b336000806101000a81548173ffffffffffffffffffffffffffffffffffffffff021916908373ffffffffffffffffffffffffffffffffffffffff1602179055506001600260008060009054906101000a900473ffffffffffffffffffffffffffffffffffffffff1673ffffffffffffffffffffffffffffffffffffffff1673ffffffffffffffffffffffffffffffffffffffff1681526020019081526020016000206000018190555060005b815181101562000177576003604051806040016040528084848151811062000110576200010f62000394565b5b60200260200101518152602001600081525090806001815401808255809150506001900390600052602060002090600202016000909190919091506000820151816000015560208201518160010155505080806200016e90620003fc565b915050620000e3565b505062000449565b6000604051905090565b600080fd5b600080fd5b600080fd5b6000601f19601f8301169050919050565b7f4e487b7100000000000000000000000000000000000000000000000000000000600052604160045260246000fd5b620001e38262000198565b810181811067ffffffffffffffff82111715620002055762000204620001a9565b5b80604052505050565b60006200021a6200017f565b9050620002288282620001d8565b919050565b600067ffffffffffffffff8211156200024b576200024a620001a9565b5b602082029050602081019050919050565b600080fd5b6000819050919050565b620002768162000261565b81146200028257600080fd5b50565b60008151905062000296816200026b565b92915050565b6000620002b3620002ad846200022d565b6200020e565b90508083825260208201905060208402830185811115620002d957620002d86200025c565b5b835b81811015620003065780620002f1888262000285565b845260208401935050602081019050620002db565b5050509392505050565b600082601f83011262000328576200032762000193565b5b81516200033a8482602086016200029c565b91505092915050565b6000602082840312156200035c576200035b62000189565b5b600082015167ffffffffffffffff8111156200037d576200037c6200018e565b5b6200038b8482850162000310565b91505092915050565b7f4e487b7100000000000000000000000000000000000000000000000000000000600052603260045260246000fd5b7f4e487b7100000000000000000000000000000000000000000000000000000000600052601160045260246000fd5b6000819050919050565b60006200040982620003f2565b91507fffffffffffffffffffffffffffffffffffffffffffffffffffffffffffffffff82036200043e576200043d620003c3565b5b600182019050919050565b6110fd80620004596000396000f3fe608060405234801561001057600080fd5b50600436106100935760003560e01c8063609ff1bd11610066578063609ff1bd1461011f57806378e979251461013d5780639e7b8d611461015b578063a3ec138d14610177578063e2ba53f0146101aa57610093565b80630121b93f14610098578063013cf08b146100b45780632e4176cf146100e55780635c19a95c14610103575b600080fd5b6100b260048036038101906100ad9190610a6b565b6101c8565b005b6100ce60048036038101906100c99190610a6b565b610360565b6040516100dc929190610ac0565b60405180910390f35b6100ed610394565b6040516100fa9190610b2a565b60405180910390f35b61011d60048036038101906101189190610b71565b6103b8565b005b610127610752565b6040516101349190610b9e565b60405180910390f35b6101456107da565b6040516101529190610b9e565b60405180910390f35b61017560048036038101906101709190610b71565b6107e0565b005b610191600480360381019061018c9190610b71565b61099f565b6040516101a19493929190610bd4565b60405180910390f35b6101b26109fc565b6040516101bf9190610c19565b60405180910390f35b4261012c6001546101d99190610c63565b111561021a576040517f08c379a000000000000000000000000000000000000000000000000000000000815260040161021190610d16565b60405180910390fd5b6000600260003373ffffffffffffffffffffffffffffffffffffffff1673ffffffffffffffffffffffffffffffffffffffff168152602001908152602001600020905060008160000154036102a4576040517f08c379a000000000000000000000000000000000000000000000000000000000815260040161029b90610d82565b60405180910390fd5b8060010160009054906101000a900460ff16156102f6576040517f08c379a00000000000000000000000000000000000000000000000000000000081526004016102ed90610dee565b60405180910390fd5b60018160010160006101000a81548160ff02191690831515021790555081816002018190555080600001546003838154811061033557610334610e0e565b5b906000526020600020906002020160010160008282546103559190610c63565b925050819055505050565b6003818154811061037057600080fd5b90600052602060002090600202016000915090508060000154908060010154905082565b60008054906101000a900473ffffffffffffffffffffffffffffffffffffffff1681565b6000600260003373ffffffffffffffffffffffffffffffffffffffff1673ffffffffffffffffffffffffffffffffffffffff16815260200190815260200160002090508060010160009054906101000a900460ff161561044d576040517f08c379a000000000000000000000000000000000000000000000000000000000815260040161044490610e89565b60405180910390fd5b3373ffffffffffffffffffffffffffffffffffffffff168273ffffffffffffffffffffffffffffffffffffffff16036104bb576040517f08c379a00000000000000000000000000000000000000000000000000000000081526004016104b290610ef5565b60405180910390fd5b5b600073ffffffffffffffffffffffffffffffffffffffff16600260008473ffffffffffffffffffffffffffffffffffffffff1673ffffffffffffffffffffffffffffffffffffffff16815260200190815260200160002060010160019054906101000a900473ffffffffffffffffffffffffffffffffffffffff1673ffffffffffffffffffffffffffffffffffffffff161461062a57600260008373ffffffffffffffffffffffffffffffffffffffff1673ffffffffffffffffffffffffffffffffffffffff16815260200190815260200160002060010160019054906101000a900473ffffffffffffffffffffffffffffffffffffffff1691503373ffffffffffffffffffffffffffffffffffffffff168273ffffffffffffffffffffffffffffffffffffffff1603610625576040517f08c379a000000000000000000000000000000000000000000000000000000000815260040161061c90610f61565b60405180910390fd5b6104bc565b60018160010160006101000a81548160ff021916908315150217905550818160010160016101000a81548173ffffffffffffffffffffffffffffffffffffffff021916908373ffffffffffffffffffffffffffffffffffffffff1602179055506000600260008473ffffffffffffffffffffffffffffffffffffffff1673ffffffffffffffffffffffffffffffffffffffff16815260200190815260200160002090508060010160009054906101000a900460ff161561072d578160000154600382600201548154811061070157610700610e0e565b5b906000526020600020906002020160010160008282546107219190610c63565b9250508190555061074d565b81600001548160000160008282546107459190610c63565b925050819055505b505050565b6000806000905060005b6003805490508110156107d557816003828154811061077e5761077d610e0e565b5b90600052602060002090600202016001015411156107c257600381815481106107aa576107a9610e0e565b5b90600052602060002090600202016001015491508092505b80806107cd90610f81565b91505061075c565b505090565b60015481565b60008054906101000a900473ffffffffffffffffffffffffffffffffffffffff1673ffffffffffffffffffffffffffffffffffffffff163373ffffffffffffffffffffffffffffffffffffffff161461086e576040517f08c379a00000000000000000000000000000000000000000000000000000000081526004016108659061103b565b60405180910390fd5b600260008273ffffffffffffffffffffffffffffffffffffffff1673ffffffffffffffffffffffffffffffffffffffff16815260200190815260200160002060010160009054906101000a900460ff16156108fe576040517f08c379a00000000000000000000000000000000000000000000000000000000081526004016108f5906110a7565b60405180910390fd5b6000600260008373ffffffffffffffffffffffffffffffffffffffff1673ffffffffffffffffffffffffffffffffffffffff168152602001908152602001600020600001541461094d57600080fd5b426001819055506001600260008373ffffffffffffffffffffffffffffffffffffffff1673ffffffffffffffffffffffffffffffffffffffff1681526020019081526020016000206000018190555050565b60026020528060005260406000206000915090508060000154908060010160009054906101000a900460ff16908060010160019054906101000a900473ffffffffffffffffffffffffffffffffffffffff16908060020154905084565b60006003610a08610752565b81548110610a1957610a18610e0e565b5b906000526020600020906002020160000154905090565b600080fd5b6000819050919050565b610a4881610a35565b8114610a5357600080fd5b50565b600081359050610a6581610a3f565b92915050565b600060208284031215610a8157610a80610a30565b5b6000610a8f84828501610a56565b91505092915050565b6000819050919050565b610aab81610a98565b82525050565b610aba81610a35565b82525050565b6000604082019050610ad56000830185610aa2565b610ae26020830184610ab1565b9392505050565b600073ffffffffffffffffffffffffffffffffffffffff82169050919050565b6000610b1482610ae9565b9050919050565b610b2481610b09565b82525050565b6000602082019050610b3f6000830184610b1b565b92915050565b610b4e81610b09565b8114610b5957600080fd5b50565b600081359050610b6b81610b45565b92915050565b600060208284031215610b8757610b86610a30565b5b6000610b9584828501610b5c565b91505092915050565b6000602082019050610bb36000830184610ab1565b92915050565b60008115159050919050565b610bce81610bb9565b82525050565b6000608082019050610be96000830187610ab1565b610bf66020830186610bc5565b610c036040830185610b1b565b610c106060830184610ab1565b95945050505050565b6000602082019050610c2e6000830184610aa2565b92915050565b7f4e487b7100000000000000000000000000000000000000000000000000000000600052601160045260246000fd5b6000610c6e82610a35565b9150610c7983610a35565b9250827fffffffffffffffffffffffffffffffffffffffffffffffffffffffffffffffff03821115610cae57610cad610c34565b5b828201905092915050565b600082825260208201905092915050565b7f566f74696e672074696d65206861732070617373656400000000000000000000600082015250565b6000610d00601683610cb9565b9150610d0b82610cca565b602082019050919050565b60006020820190508181036000830152610d2f81610cf3565b9050919050565b7f486173206e6f20726967687420746f20766f7465000000000000000000000000600082015250565b6000610d6c601483610cb9565b9150610d7782610d36565b602082019050919050565b60006020820190508181036000830152610d9b81610d5f565b9050919050565b7f416c726561647920766f7465642e000000000000000000000000000000000000600082015250565b6000610dd8600e83610cb9565b9150610de382610da2565b602082019050919050565b60006020820190508181036000830152610e0781610dcb565b9050919050565b7f4e487b7100000000000000000000000000000000000000000000000000000000600052603260045260246000fd5b7f596f7520616c726561647920766f7465642e0000000000000000000000000000600082015250565b6000610e73601283610cb9565b9150610e7e82610e3d565b602082019050919050565b60006020820190508181036000830152610ea281610e66565b9050919050565b7f53656c662d64656c65676174696f6e20697320646973616c6c6f7765642e0000600082015250565b6000610edf601e83610cb9565b9150610eea82610ea9565b602082019050919050565b60006020820190508181036000830152610f0e81610ed2565b9050919050565b7f466f756e64206c6f6f7020696e2064656c65676174696f6e2e00000000000000600082015250565b6000610f4b601983610cb9565b9150610f5682610f15565b602082019050919050565b60006020820190508181036000830152610f7a81610f3e565b9050919050565b6000610f8c82610a35565b91507fffffffffffffffffffffffffffffffffffffffffffffffffffffffffffffffff8203610fbe57610fbd610c34565b5b600182019050919050565b7f4f6e6c79206368616972706572736f6e2063616e20676976652072696768742060008201527f746f20766f74652e000000000000000000000000000000000000000000000000602082015250565b6000611025602883610cb9565b915061103082610fc9565b604082019050919050565b6000602082019050818103600083015261105481611018565b9050919050565b7f54686520766f74657220616c726561647920766f7465642e0000000000000000600082015250565b6000611091601883610cb9565b915061109c8261105b565b602082019050919050565b600060208201905081810360008301526110c081611084565b905091905056fea26469706673582212207f2cceae95c6c612d59ae6fc0339bc8d15a7c58da553097b2d5d1fa3f2115a4064736f6c634300080d0033",
  "linkReferences": {},
  "deployedLinkReferences": {}
}